:020000040800F2
:1000000000000220A50C00088D0C0008A5090008BE
:10001000A7090008A90900088F0C000800000000CB
:10002000000000000000000000000000910C00082B
:10003000930C0008000000003507000819070008AD
:10004000F50C0008F50C0008F50C0008F50C00088C
:10005000F50C0008F50C0008AD090008F50C0008C7
:10006000F50C0008F50C0008F50C0008F50C00086C
:10007000F50C0008F50C0008F50C0008F50C00085C
:10008000F50C0008F50C0008F50C0008F50C00084C
:10009000F50C0008F50C0008F50C0008F50C00083C
:1000A000F50C0008F50C0008F50C0008F50C00082C
:1000B000F50C0008F50C0008F50C0008F50C00081C
:1000C000F50C0008F50C0008F50C0008F50C00080C
:1000D000F50C0008F50C0008F50C0008F50C0008FC
:1000E000F50C0008F50C0008F50C0008F50C0008EC
:1000F000F50C0008F50C0008F50C0008F50C0008DC
:10010000F50C0008F50C0008F50C0008F50C0008CB
:10011000F50C0008F50C0008950C0008F50C00081B
:10012000F50C0008F50C0008F50C0008F50C0008AB
:10013000F50C0008F50C0008F50C0008F50C00089B
:10014000F50C0008F50C0008F50C0008F50C00088B
:10015000F50C0008F50C0008F50C0008F50C00087B
:10016000F50C0008F50C0008F50C0008F50C00086B
:10017000F50C0008F50C0008F50C00080000000064
:08018000F50C0008F50C000865
:1001880010B5054C237833B9044B13B10448AFF3C9
:1001980000800123237010BD6C00002000000000C7
:1001A8006019000808B5034B1BB103490348AFF3B6
:1001B800008008BD000000007000002060190008E1
:1001C80053B94AB9002908BF00281CBF4FF0FF31B6
:1001D8004FF0FF3000F088B9ADF1080C6DE904CE9E
:1001E80000F006F8DDF804E0DDE9022304B070470A
:1001F8002DE9F047089D8E4604468846002B4AD1D3
:100208008A42174662D9B2FA82F64EB1C6F1200385
:1002180001FA06F820FA03F3B74043EA0808B440A5
:100228004FEA174E1FFA87FCB8FBFEF1230C0EFBB2
:10023800118843EA084301FB0CF29A4209D9FB18DA
:1002480001F1FF3080F0EA809A4240F2E7800239FB
:100258003B449A1AA3B2B2FBFEF00EFB102243EA0B
:10026800024300FB0CFC9C4509D9FB1800F1FF3246
:1002780080F0D6809C4540F2D3803B44023840EA67
:100288000140A3EB0C0300211DB1F3400022C5E996
:100298000032BDE8F0878B4205D90DB1C5E90001F0
:1002A80000210846F5E7B3FA83F1002946D17345E2
:1002B80002D3824200F20581841A6EEB0302012008
:1002C8009046002DE5D0C5E90048E2E7002A00F095
:1002D8009080B2FA82F6002E40F0A4808A1A030CAD
:1002E8004FEA174E80B2BCB20121B2FBFEFC0EFBF6
:1002F8001C2243EA024304FB0CF29A4207D9FB187A
:100308000CF1FF3802D29A4200F2E080C4469B1AF0
:10031800B3FBFEF20EFB123340EA034302FB04F484
:100328009C4207D9FB1802F1FF3002D29C4200F22E
:10033800CA8002461B1B42EA0C40A5E7C1F1200611
:100348008B4022FA06F71F430EFA01F420FA06F34F
:100358002EFA06FE4FEA1749234300FA01F81FFA5E
:1003680087FCBEFBF9F01C0C09FB10EE44EA0E44B6
:1003780000FB0CFEA64502FA01F209D93C1900F16E
:10038800FF3A80F09C80A64540F2998002383C44B0
:10039800A4EB0E041FFA83FEB4FBF9F309FB134424
:1003A8004EEA044403FB0CFCA44508D93C1903F1AC
:1003B800FF3E80F08280A4457FD9023B3C4443EA5B
:1003C8000040A4EB0C04A0FB02EC64457346E14634
:1003D80062D35FD05DB1B8EB030264EB090404FAA1
:1003E80006F622FA01F31E43CC40C5E90064002159
:1003F8004FE7B1FBF2FC010C41EA0E4180B240EA42
:1004080001423B4638463C46B846BE462026B1FB2C
:10041800F7F1A2EB080241EA0C4166E7014618E74A
:1004280010462CE7C6F120022EFA02F3B740B1407D
:1004380020FA02F24FEA174E0A43B3FBFEF8BCB2A9
:100448000EFB1833110C41EA034108FB04F9B040D4
:1004580089454FEA104380B23ED9791808F1FF3C2C
:1004680001D289451FD8A1EB0901B1FBFEF909FBAF
:1004780004F80EFB191192B242EA0142424529D210
:10048800BA1809F1FF31C4D24245C2D2A9F102011A
:100498003A44BEE7F0459DD2BEEB02036CEB070C75
:1004A8000138E14696E7A7EB09094944A8F1020C8F
:1004B800B1FBFEF909FB04F8DBE773467FE750461A
:1004C80066E70846FDE63B44023A33E7ACF1020C26
:1004D8003B441CE749469CE7A1EB0901C446B1FB34
:1004E800FEF909FB04F8C4E7704700BF62B630BFE5
:1004F800FDE7000030B572B6124A13681BB962B640
:100508004FF0FF3030BD0A21116062B60E4D0F4921
:100518002C68092C04F1010008BF002051F82410B0
:1005280028604FF04024087818B9013B1360E9E7C8
:1005380000BFD4F800044006FAD511F8010BC4F83E
:100548000404F0E7880000209000002094000020B8
:100558004FF0E022D2F8243D43F4E023C2F8243DD2
:1005680070470000104B1149F0B50022104C114F94
:100578001A604FF0807508226FF0020651F8043BAC
:1005880043F8045C54F8040B43F8080C43F80C6C6B
:10059800A3F10C00403B40F8047D8342FBD1013AB3
:1005A80041F8043CEAD1F0BD4000002020000020C2
:1005B80000000020EFBEADDE72B64FF0E02300224F
:1005C8001A619A6147F6FF425A6107221A61044A82
:1005D800C3F8202D4FF07042C3F81C2D62B6704747
:1005E8000000F0F0431E062B9CBF024B43F820107E
:1005F800704700BF400000200021FFF7F3BF000054
:100608000E4A38B513680A2B16D072B60C4D0D4B2E
:100618002C6843F824001368092C03F101014FF0FA
:10062800050004F1010308BF002311602B60FFF7E8
:10063800E3FF62B6012038BD0020FCE788000020F7
:100648008C00002094000020054B1A68054B43F8E5
:1006580022004FF0E0234FF08052C3F8042D70477A
:10066800BC00002040000020022181F31488854648
:10067800704785467047000072B60748FFF7F9FFD4
:10068800FFF770FF0548FFF763FFFFF7EDFFFFF780
:1006980093FF0349084700BF80F7012000000220AC
:1006A800F5040008024B1A68024B43F82200704711
:1006B800BC00002020000020024B1A68024B53F8AF
:1006C80022007047BC000020200000200E4B10B50F
:1006D80001221C4653F8041F0139C81C02F101020B
:1006E80098BF1960082AF5D108490B68013303F04F
:1006F800070354F8230000B923B9013AF6D10028BA
:1007080018BF00230B6010BD40000020BC00002073
:10071800054A1368013313604FF0E0234FF080520D
:10072800C3F8042D704700BFC000002072B600B5A2
:10073800EFF3098020E9F00FFFF7B4FFFFF7C6FFDA
:10074800FFF7BAFFB0E8F00F80F3098862B600BD82
:1007580047F63003038000F000B802230A0F0901AE
:1007680030323A2A00D30732C25201330A2BF5D16C
:10077800704740F60D2101607047000030B54FF01A
:1007880000050560456085600D4BA3FB0143DC084F
:1007980022000A2304FB03F40C1B44F030044453E6
:1007A800013511460029EFD120B4013D445D425C7A
:1007B800425544540131013D8D4200D0F6DC31BD33
:1007C800CDCCCCCC08B500220E21062000F0E2FAF0
:1007D800062000F011FBFFF74FFFFEE770B52D4C28
:1007E8002D4D8AB00C2000F0E7F823682B4A5343BC
:1007F800B3F1333F0BD82A4E3046FFF701FF0028EC
:10080800FAD0284E3046FFF7FBFE0028FAD0264ED5
:100818003046FFF7F5FE0028FAD021682846FFF792
:10082800ADFF2368013323602846FFF7E9FE00285F
:10083800FAD01E4E3046FFF7E3FE0028FAD01C49D6
:100848001C4E05A8FFF784FF4FF040236846D3F8F5
:100858000814FFF77DFF0DF10A00FFF78AFF304605
:10086800FFF7CEFE0028FAD005A8FFF7C9FE00283A
:10087800FAD0114E3046FFF7C3FE0028FAD068467A
:10088800FFF7BEFE0028FAD04FF47A70FFF7DCFEBF
:10089800A8E700BFC4000020C8000020CDCCCCCC05
:1008A8009C1A00085D1A0008781900088D190008BC
:1008B80008440040A6190008B419000810B5074CF0
:1008C8000D2000F079F82046FFF79AFE0028FAD0AC
:1008D8004FF4FA70FFF7B8FEF2E700BFC519000839
:1008E80010B5064C0E2000F067F82046FFF788FE8A
:1008F8000028FAD0FA20FFF7A7FEF3E7D819000876
:1009080010B5064C0F2000F057F82046FFF778FE88
:100918000028FAD07D20FFF797FEF3E7EB190008CF
:1009280008B5FFF7E7FDFFF78FFEFAE710B5054CAE
:100938002046FFF765FE0028FAD040F6055000F083
:1009480003FAF5E7FE19000870B5104D104C28465B
:10095800FFF756FE0028FAD01420FFF775FE23692A
:10096800DB0711D40B4E3046FFF74AFE0028FAD0B9
:100978001420FFF769FE084B01225A614FF0FF303F
:100988001A60FFF761FEE2E70A20E6E7131A00089B
:1009980000000240351A0008003C0140FEE7FEE76F
:1009A800FEE70000034B01225A6100221A6007206B
:1009B800FFF722BE003C0140034A52F8203083F082
:1009C800010342F8203070478082414230B595B02B
:1009D8001422002109A800F092FF1422002103A884
:1009E80000F08DFF00231D4A0193116C41F08051E6
:1009F8001164126C02F080520192019A184A029313
:100A0800116841F480411160126802F48042029238
:100A18000224029A089410220125CDE90B52CDE94F
:100A28000E4308224023CDE9102308A8042312947A
:100A3800139300F0CDFA08B172B6FEE70F23CDE9A3
:100A480003348023CDE905300790294603A800F038
:100A58009BFC08B172B6FEE715B030BD0038024005
:100A68000070004000B589B000F042F9FFF7AEFF12
:100A78001422002103A800F042FF0024264B009412
:100A88001A6B264842F080021A631A6B02F0800241
:100A98000092009A01941A6B42F001021A631A6BD1
:100AA80002F001020192019A02941A6B42F00802C4
:100AB8001A631B6B03F00803224602934FF470413C
:100AC800029B012500F07EFA4FF488131448059420
:100AD80003A9CDE9035300F09DF94FF470430F4883
:100AE80003A9CDE90335CDE9054400F093F90D4894
:100AF8000D4A04614FF4E133C0E900230C23C0E937
:100B08000244C0E90534C46100F0CAFE08B172B6F7
:100B1800FEE7FFF757FEFEE700380240000C0240F0
:100B280000000240DC000020004400400268034B43
:100B38009A4201D100F0F6B8704700BF001000409B
:100B480082B00C4B002100915A6C42F480425A64E6
:100B58005A6C02F480420092009A01911A6C42F099
:100B680080521A641B6C03F080530193019B02B0FE
:100B7800704700BF0038024010B5044688B0142200
:100B8800002103A800F0BBFE2268144B9A4222D130
:100B980003F5FA33002101911A6C114842F400322E
:100BA8001A641A6C02F400320192019A02911A6BCB
:100BB80042F001021A631B6B03F001030293029BCC
:100BC8000C2202230321CDE903230723CDE90613D1
:100BD80003A900F01FF908B010BD00BF0044004091
:100BE8000000024070B588B000230293204B1A6CB5
:100BF80042F010021A641B6C03F0100302930546BE
:100C080001A903A8029B00F079FC069B4BBB00F0EE
:100C180055FC184E184B336040F2E733F360174B1E
:100C2800B0FBF3F3013B7360304600233361B360DC
:100C3800B36100F0A9FD044680B9304600F07EFC9F
:100C4800044658B9362000F0D7F80F2D0DD82246A3
:100C58002946362000F09EF8094B1D60204608B052
:100C680070BD00F02BFC4000D3E70124F6E700BF7D
:100C780000380240240100200010004040420F00CC
:100C880068000020FEE7FEE770477047014800F063
:100C980093BC00BF2401002070470000DFF834D067
:100CA800FFF7FAFF0C480D490D4A002302E0D4581B
:100CB800C4500433C4188C42F9D30A4A0A4C00239E
:100CC80001E013600432A242FBD300F021FEFFF7DB
:100CD800C9FE704700000220000000206C000020C0
:100CE800D81A00086C00002070010020FEE7000000
:100CF80008B50B4B1A6842F400721A601A6842F47D
:100D080080621A601A6842F480721A60032000F048
:100D18002FF80F20FFF766FFFFF712FF002008BD2E
:100D2800003C0240034A044B11681B780B441360D3
:100D3800704700BF6C01002064000020014B186858
:100D4800704700BF6C01002038B50446FFF7F6FF76
:100D5800631C1CBF054B1B78054618BFE418FFF73A
:100D6800EDFF431BA342FAD338BD00BF6400002047
:100D78000749CA6822F4E0620302120403F4E0633C
:100D8800120C134343F0BF6343F40033CB60704746
:100D980000ED00E0164B30B5DC68C4F30224C4F162
:100DA8000703251D042B28BF0423062D4FF0FF350C
:100DB8008CBF033C002405FA03F321EA0303A54092
:100DC80022EA0502A340002843EA0203ACBF00F16F
:100DD8006040084A4FEA0313B8BF00F00F00DBB2C7
:100DE800AABF00F56140135480F8003330BD00BF3E
:100DF80000ED00E014ED00E0002807DB044A41099B
:100E0800012300F01F00834042F82130704700BFE3
:100E180000E100E02DE9F74FDFF89C91674A0023D5
:100E28000D6801249C4004EA0506AC4340F0AF80FD
:100E38004D68032705F003044FEA430807FA08FC46
:100E4800671E012F6FEA0C0C34D8876807EA0C0E6E
:100E5800CF6807FA08F747EA0E078760476827EA66
:100E6800060EC5F300179F4047EA0E074760C7689C
:100E780007EA0C0E8F6807FA08F747EA0E07022CF4
:100E8800C76019D14FEAD30A00EB8A0A03F0070BAF
:100E9800DAF820704FEA8B0B4FF00F0E0EFA0BFEAC
:100EA80027EA0E0E0F6907FA0BF747EA0E07CAF88A
:100EB800207001E0032CDAD1076804FA08F407EA85
:100EC8000C073C4315F4403F046060D000240194B3
:100ED800D9F8444044F48044C9F84440D9F844401F
:100EE80023F0030707F1804704F4804407F59C3793
:100EF800019403F0030C019CD7F808E04FEA8C0C2E
:100F08000F2404FA0CF42EEA040E2D4CA04245D00E
:100F180004F58064A04243D004F58064A04241D027
:100F280004F58064A0423FD004F58064A0423DD01F
:100F380004F58064A0423BD004F58064A04239D017
:100F480004F58064A04214BF0824072404FA0CF4B2
:100F580044EA0E04BC609468F74315F4801F0CBF84
:100F68003C4034439460D46815F4001F0CBF3C40E7
:100F78003443D460546815F4003F0CBF3C403443FC
:100F880054601468ED0354BF3C403443146001338B
:100F9800102B7FF445AF03B0BDE8F08F0024D5E7F0
:100FA8000124D3E70224D1E70324CFE70424CDE7C3
:100FB8000524CBE70624C9E700380240003C01407D
:100FC800000002400AB1816170470904FBE7000094
:100FD8002DE9F341044640B30368DE0710D42368C3
:100FE8009D075BD42368190700F19D8023685A0781
:100FF80000F1BD80A369002B40F0248100202CE083
:101008008D4B9A6802F00C02042A07D09A6802F005
:101018000C02082A0BD15B68590208D5864B1B685D
:101028009A03DCD56368002BD9D1012015E06368E9
:10103800814DB3F5803F13D12B6843F480332B6087
:10104800FFF77CFE7C4E054633689B03C7D4FFF749
:1010580075FE401B6428F7D9032002B0BDE8F08173
:10106800B3F5A02F04D12B6843F480232B60E3E76A
:101078002A6822F480322A602A6822F480222A60B0
:10108800002BDDD1FFF75AFE06462B689F03A6D535
:10109800FFF754FE801B6428F7D9DDE7664B9A6892
:1010A80012F00C0F07D09A6802F00C02082A11D12E
:1010B8005B685D020ED4604A1368990702D5E3683D
:1010C800012BB2D11368216923F0F80343EAC10365
:1010D800136087E7E268594BB2B101221A60FFF743
:1010E8002DFE554D06462B689B0707D52B682269B0
:1010F80023F0F80343EAC2032B6073E7FFF71EFEF1
:10110800801B0228EFD9A7E71A60FFF717FE4A4E9F
:10111800054633689F077FF565AFFFF70FFE401B55
:101128000228F6D998E76269444B82B10122C3F8D4
:10113800802EFFF703FE404E0546736F9B073FF571
:1011480055AFFFF7FBFD401B0228F6D984E7C3F82B
:10115800802EFFF7F3FD384E0546736F9F077FF526
:1011680045AFFFF7EBFD401B0228F6D974E7324B79
:101178001A6C12F0805228D101921A6C42F08052F7
:101188001A641B6C03F080530193019B01272C4DBB
:101198002B68D8051BD5A368274D012B27D12B6FAA
:1011A80043F001032B67FFF7C9FD234E054641F2C3
:1011B8008838336F9A0739D5002F3FF41BAF1E4A82
:1011C800136C23F08053136414E70027DFE72B68C0
:1011D80043F480732B60FFF7B1FD06462B68D905F1
:1011E800D9D4FFF7ABFD801B0228F7D934E7052BCC
:1011F80004D12B6F43F004032B67D0E72A6F22F04A
:1012080001022A672A6F22F004022A67002BCAD13A
:10121800FFF794FD41F2883806462B6F9B07CBD524
:10122800FFF78CFD801B4045F7D915E7FFF786FDD2
:10123800401B4045BDD90FE7003802400000474237
:1012480000700040374DAA6802F00C02082A3ED010
:10125800022B354B4FF000021A662BD1FFF76EFDBB
:1012680006462B6899011FD4D4E907321343626AF2
:1012780043EA8213E26A43EA0263A26A5208013A25
:1012880043EA02436B60284B264D01221A66FFF79A
:1012980055FD04462B689A013FF5B0AEFFF74EFDA9
:1012A800001B0228F6D9D7E6FFF748FD801B022865
:1012B800D7D9D1E6FFF742FD04462B689B017FF59D
:1012C8009DAEFFF73BFD001B0228F6D9C4E6012BB3
:1012D8003FF4ABAE6B68E26903F4800191427FF49E
:1012E800A4AE216A03F03F028A427FF49EAE616A8F
:1012F80047F6C0721A40B2EB811F7FF496AEA26A1D
:10130800520803F44031013AB1EB024F7FF48DAE3D
:10131800E26A03F07063B3EB026F14BF0120002090
:101328009BE600BF0038024000004742134908B559
:101338008B6803F00C03042B1CD0082B1CD14A68C3
:101348004B68496813F4800314BF0D480D48C1F376
:10135800881118BF002302F03F02A1FB0001FEF72D
:101368002FFF064B5B68C3F3014301335B00B0FBFF
:10137800F3F008BD0248FCE70248FAE700380240EB
:1013880000127A000024F4002DE9F0410D460446CD
:1013980010B90120BDE8F081434B1A6802F007023A
:1013A8008A4228D321688F072DD4C80740D43E4BE2
:1013B8001A6802F00702AA4265D8226851076BD45E
:1013C800130707D5394A2169936823F4604343EA30
:1013D800C1039360FFF7AAFF344B354A9B68C3F3F8
:1013E8000313D35CD840334B1860334B1868FFF7AE
:1013F800F9FB0020CEE7CAB21A701B6803F0070396
:101408008B42C6D1CEE7294B11F0040F1EBF9A6854
:1014180042F4E0529A600E0742BF9A6842F4604272
:101428009A609A68A06822F0F00202439A60BCE7CA
:1014380062681E4B012A1CD11B6813F4003FA8D018
:101448001A4EB36823F003031343B360FFF776FC27
:1014580041F288380746B368626803F00C03B3EBBF
:10146800820FA4D0FFF76AFCC01B4045F3D90320C4
:1014780090E7911E01291B6802D813F0007FDEE770
:1014880013F0020FDBE7EAB21A701B6803F00703D8
:10149800AB427FF47EAF90E70449E0688B6823F4A1
:1014A800E05303438B608BE7003C02400038024066
:1014B800B81A00086000002068000020044B054AA4
:1014C8009B68C3F38223D35C034A1068D8407047F3
:1014D80000380240B01A000860000020044B054A9A
:1014E8009B68C3F34233D35C034A1068D840704703
:1014F80000380240B01A0008600000200F23036083
:101508000B4B9A6802F0030242609A6802F0F002FC
:1015180082609A6802F4E052C2609B68DB0803F4B8
:10152800E0530361034B1B6803F007030B6070472C
:1015380000380240003C02407047000090F83D30FF
:10154800012B30D1022380F83D300368DA6842F07D
:101558000102DA60154A93421AD0B3F1804F17D0CE
:10156800A2F57C42934213D002F5806293420FD0D9
:1015780002F5806293420BD002F57842934207D07D
:1015880002F57052934203D0A2F59432934204D1EB
:101598009A6802F00702062A03D01A6842F001028C
:1015A8001A60002070470120704700BF000001400A
:1015B8007047704770477047036870B5DD681E69EB
:1015C800B10704460DD5AA070BD56FF002021A61C0
:1015D800012202779B699B0769D0FFF7EAFF002386
:1015E8002377710710D56A070ED523686FF00402B8
:1015F8001A61022222779B6913F4407F20465CD04F
:10160800FFF7D7FF0023237733070FD528070DD51A
:1016180023686FF008021A6104222277DB699907B0
:10162800204650D0FFF7C5FF00232377F20610D5D8
:10163800EB060ED523686FF010021A610822227794
:10164800DB6913F4407F204643D0FFF7B2FF002345
:101658002377F00708D5E90706D523686FF001025C
:101668001A612046FFF762FA320608D52B0606D51E
:1016780023686FF080021A61204600F0B2F8700605
:1016880008D5690606D523686FF040021A6120461E
:10169800FFF791FFB20622D5AB0620D523686FF07D
:1016A800200220461A61BDE8704000F099B8FFF7A3
:1016B8007FFF2046FFF77EFF91E7FFF779FF20467F
:1016C800FFF778FF9EE7FFF773FF2046FFF772FFEB
:1016D800AAE7FFF76DFF2046FFF76CFFB7E770BD7D
:1016E800274A0368904212D0B0F1804F0FD0A2F57C
:1016F8007C4290420BD002F58062904207D002F5FE
:101708008062904203D002F57842904208D14A683C
:1017180023F070031343CA6823F44073134316E09D
:10172800184A9042F7D002F580629042F3D002F551
:1017380080629042EFD0A2F598329042EBD002F549
:1017480080629042E7D002F580629042E3D04A6915
:1017580023F0800313438A68C2620A688262084AD7
:10176800904203D002F58062904201D10A69026377
:10177800026842F00402026001224261036070477D
:10178800000001400040014010B5044630B390F815
:101798003D3003F0FF021BB980F83C20FFF7CCFE78
:1017A8000223206884F83D30211DFFF799FF0123AB
:1017B80084F84630002084F83E3084F83F3084F8BE
:1017C800403084F8413084F8423084F8433084F85B
:1017D800443084F8453084F83D3010BD0120FCE7E2
:1017E800704770470268C16838B5136923F44053DD
:1017F8000B431361054683680069D1680343686930
:101808000343E86921F4164121F00C0103430B431B
:10181800D3605369A96923F440730B4353611F4B89
:101828009A4203D003F580639A4224D1FFF756FE0B
:10183800EA691921B2F5004FD5E90043A0FB01017F
:101848001CD1DA184FF0000545EB0503FEF7B8FC8C
:101858006422B0FBF2F102FB1103DB003233B3FB6D
:10186800F2F303F007025B0002EB011203F4F873D2
:101878001344A36038BDFFF721FED9E79A009B0FF8
:10188800FEF79EFC6422B0FBF2F102FB11031B0180
:101898003233B3FBF2F303EB0113EAE70010014024
:1018A80010B5044648B390F8413003F0FF021BB965
:1018B80080F84020FFF760F92268242384F841303B
:1018C800D36823F40053D3602046FFF78BFF2368C7
:1018D8001A6922F490421A615A6922F02A025A615E
:1018E800DA6842F40052DA6000202023606484F849
:1018F800413084F84230606310BD0120FCE70244A7
:101908000346934200D1704703F8011BF9E7000032
:1019180070B50D4D0D4C641BA4100026A64209D1CC
:101928000B4D0C4C00F018F8641BA4100026A642BE
:1019380005D170BD55F8043B98470136EEE755F8D8
:10194800043B98470136F2E7D01A0008D01A00087D
:10195800D01A0008D41A0008F8B500BFF8BC08BCB3
:101968009E467047F8B500BFF8BC08BC9E46704755
:101978000D0A5072696E742066726F6D205441535F
:101988004B310D0A00205365636F6E6473206672D5
:101998006F6D2073746172742E2E2E0D0A005265BD
:1019A8006769737465722061743A200020636F6EF2
:1019B8007461696E732076616C7565200050726978
:1019C8006E742066726F6D205441534B320D0A00BD
:1019D8005072696E742066726F6D205441534B3398
:1019E8000D0A005072696E742066726F6D20544142
:1019F800534B340D0A000D0A48414C205441534BB7
:101A0800205052494E540D0A0D0A000D0A202E2E60
:101A18002E20425554544F4E20505245535345445E
:101A2800202E2E2E202121210D0A0D0A000D0A201C
:101A38002E2E2E2E2E2E2E20425554544F4E2052EE
:101A4800454C454153534544202E2E2E2E2E2E2EE6
:101A58000D0A0D0A004D592052544F5320636F64EC
:101A6800656420627920776567690D0A52415720BD
:101A780056455253494F4E2072756E6E696E6720F7
:101A88000D0D0A0A53544152544544202121210D79
:101A98000D0A0A001B5B324A1B5B334A1B5B393257
:101AA8006D1B5B303B306600000000000102030440
:101AB80000000000000000000102030406070809F6
:081AC80030E7FF7F0100000080
:041AD000AD0100085C
:041AD400890100087C
:101AD800F5040008E5070008C5080008E90800083B
:101AE80009090008290900083509000851090008F2
:101AF8000000022080FF012080FE012080FD0120DF
:101B080080FC012080FB012080F9012080F8012061
:101B180000000000000000000000000000000000BD
:101B280000000000FFFFFFFF00000000FFFFFFFFB5
:0C1B38000024F400010000001000000078
:0400000508000CA53E
:00000001FF
